{
  "contractName": "UniswapV2Router02Contract",
  "abi": [
    {
      "inputs": [
        {
          "internalType": "address",
          "name": "_UNISWAP_V2_FACTORY",
          "type": "address"
        },
        {
          "internalType": "address",
          "name": "_UNISWAP_V2_WETH",
          "type": "address"
        }
      ],
      "stateMutability": "nonpayable",
      "type": "constructor"
    },
    {
      "anonymous": false,
      "inputs": [
        {
          "indexed": true,
          "internalType": "address",
          "name": "_fromToken",
          "type": "address"
        },
        {
          "indexed": true,
          "internalType": "address",
          "name": "_toToken",
          "type": "address"
        },
        {
          "indexed": false,
          "internalType": "uint256",
          "name": "_amountIn",
          "type": "uint256"
        }
      ],
      "name": "swapDone",
      "type": "event"
    },
    {
      "inputs": [],
      "name": "UNISWAP_V2_FACTORY",
      "outputs": [
        {
          "internalType": "address",
          "name": "",
          "type": "address"
        }
      ],
      "stateMutability": "view",
      "type": "function",
      "constant": true
    },
    {
      "inputs": [],
      "name": "UNISWAP_V2_ROUTER",
      "outputs": [
        {
          "internalType": "address",
          "name": "",
          "type": "address"
        }
      ],
      "stateMutability": "view",
      "type": "function",
      "constant": true
    },
    {
      "inputs": [],
      "name": "UNISWAP_V2_WETH",
      "outputs": [
        {
          "internalType": "address",
          "name": "",
          "type": "address"
        }
      ],
      "stateMutability": "view",
      "type": "function",
      "constant": true
    },
    {
      "inputs": [
        {
          "internalType": "address",
          "name": "tokenA",
          "type": "address"
        },
        {
          "internalType": "address",
          "name": "tokenB",
          "type": "address"
        },
        {
          "internalType": "uint256",
          "name": "_amount",
          "type": "uint256"
        }
      ],
      "name": "testSomeThings",
      "outputs": [
        {
          "internalType": "uint256",
          "name": "",
          "type": "uint256"
        }
      ],
      "stateMutability": "view",
      "type": "function",
      "constant": true
    },
    {
      "inputs": [
        {
          "internalType": "address",
          "name": "_tokenIn",
          "type": "address"
        },
        {
          "internalType": "address",
          "name": "_tokenOut",
          "type": "address"
        }
      ],
      "name": "getReserveOfTokenIn",
      "outputs": [
        {
          "internalType": "uint256[]",
          "name": "amounts",
          "type": "uint256[]"
        }
      ],
      "stateMutability": "view",
      "type": "function",
      "constant": true
    },
    {
      "inputs": [
        {
          "internalType": "address",
          "name": "_tokenIn",
          "type": "address"
        },
        {
          "internalType": "address",
          "name": "_tokenOut",
          "type": "address"
        },
        {
          "internalType": "uint256",
          "name": "_amountIn",
          "type": "uint256"
        }
      ],
      "name": "getAmountOutForSwap",
      "outputs": [
        {
          "internalType": "uint256",
          "name": "",
          "type": "uint256"
        }
      ],
      "stateMutability": "view",
      "type": "function",
      "constant": true
    },
    {
      "inputs": [
        {
          "internalType": "address",
          "name": "_tokenIn",
          "type": "address"
        },
        {
          "internalType": "address",
          "name": "_tokenOut",
          "type": "address"
        },
        {
          "internalType": "uint256",
          "name": "_amountIn",
          "type": "uint256"
        }
      ],
      "name": "getAmountInForSwap",
      "outputs": [
        {
          "internalType": "uint256",
          "name": "",
          "type": "uint256"
        }
      ],
      "stateMutability": "view",
      "type": "function",
      "constant": true
    },
    {
      "inputs": [
        {
          "internalType": "address",
          "name": "_tokenIn",
          "type": "address"
        },
        {
          "internalType": "address",
          "name": "_tokenOut",
          "type": "address"
        },
        {
          "internalType": "uint256",
          "name": "_amountIn",
          "type": "uint256"
        },
        {
          "internalType": "uint256",
          "name": "_amountOutMin",
          "type": "uint256"
        },
        {
          "internalType": "address",
          "name": "_to",
          "type": "address"
        }
      ],
      "name": "makeSwapExactTokensForTokens",
      "outputs": [],
      "stateMutability": "nonpayable",
      "type": "function"
    },
    {
      "inputs": [
        {
          "internalType": "address",
          "name": "tokenA",
          "type": "address"
        },
        {
          "internalType": "address",
          "name": "tokenB",
          "type": "address"
        },
        {
          "internalType": "uint256",
          "name": "amountADesired",
          "type": "uint256"
        },
        {
          "internalType": "uint256",
          "name": "amountBDesired",
          "type": "uint256"
        },
        {
          "internalType": "uint256",
          "name": "amountAMin",
          "type": "uint256"
        },
        {
          "internalType": "uint256",
          "name": "amountBMin",
          "type": "uint256"
        },
        {
          "internalType": "address",
          "name": "to",
          "type": "address"
        },
        {
          "internalType": "uint256",
          "name": "deadline",
          "type": "uint256"
        }
      ],
      "name": "addLiquidityToExchanger",
      "outputs": [
        {
          "internalType": "uint256",
          "name": "amountA",
          "type": "uint256"
        },
        {
          "internalType": "uint256",
          "name": "amountB",
          "type": "uint256"
        },
        {
          "internalType": "uint256",
          "name": "liquidity",
          "type": "uint256"
        }
      ],
      "stateMutability": "nonpayable",
      "type": "function"
    },
    {
      "inputs": [
        {
          "internalType": "address",
          "name": "tokenA",
          "type": "address"
        },
        {
          "internalType": "address",
          "name": "tokenB",
          "type": "address"
        },
        {
          "internalType": "uint256",
          "name": "amountAMin",
          "type": "uint256"
        },
        {
          "internalType": "uint256",
          "name": "amountBMin",
          "type": "uint256"
        },
        {
          "internalType": "address",
          "name": "to",
          "type": "address"
        },
        {
          "internalType": "uint256",
          "name": "deadline",
          "type": "uint256"
        }
      ],
      "name": "removeLiquidityFromExchanger",
      "outputs": [
        {
          "internalType": "uint256",
          "name": "amountA",
          "type": "uint256"
        },
        {
          "internalType": "uint256",
          "name": "amountB",
          "type": "uint256"
        }
      ],
      "stateMutability": "nonpayable",
      "type": "function"
    },
    {
      "inputs": [
        {
          "internalType": "address",
          "name": "_tokenA",
          "type": "address"
        },
        {
          "internalType": "address",
          "name": "_tokenB",
          "type": "address"
        }
      ],
      "name": "getPairAddress",
      "outputs": [
        {
          "internalType": "address",
          "name": "",
          "type": "address"
        }
      ],
      "stateMutability": "view",
      "type": "function",
      "constant": true
    },
    {
      "inputs": [
        {
          "internalType": "address",
          "name": "_tokenA",
          "type": "address"
        },
        {
          "internalType": "address",
          "name": "_tokenB",
          "type": "address"
        }
      ],
      "name": "getUserBalanceFromLiq",
      "outputs": [
        {
          "internalType": "uint256",
          "name": "",
          "type": "uint256"
        }
      ],
      "stateMutability": "view",
      "type": "function",
      "constant": true
    }
  ],
  "bytecode": "0x60c060405234801561001057600080fd5b506040516121253803806121258339818101604052604081101561003357600080fd5b5080516020909101516001600160601b0319606092831b8116608052911b1660a05260805160601c60a05160601c6120436100e26000398061066952806106a452806107af5280610a445280610a7a5280610b855280610de05280610fd0528061100b52806111165250806103f0528061083152806108815280610e725280610f4c5280610f90528061119852806111d5528061122b528061158c528061164552806116f852506120436000f3fe608060405234801561001057600080fd5b50600436106100b45760003560e01c80638cbd97b3116100715780638cbd97b31461026d57806399d8fae3146102a3578063a82ed9ec146102ab578063afd51215146102b3578063b4f69a2f146102e9578063d00b6de514610317576100b4565b80630ab402d0146100b957806310bef7d71461011a57806331c9a8641461016257806346fee1a61461019057806349ac6eb3146101d65780636ab197df146101fa575b600080fd5b610101600480360360c08110156100cf57600080fd5b506001600160a01b03813581169160208101358216916040820135916060810135916080820135169060a00135610395565b6040805192835260208301919091528051918290030190f35b6101506004803603606081101561013057600080fd5b506001600160a01b03813581169160208101359091169060400135610663565b60408051918252519081900360200190f35b6101506004803603604081101561017857600080fd5b506001600160a01b0381358116916020013516610879565b6101d4600480360360a08110156101a657600080fd5b506001600160a01b03813581169160208101358216916040820135916060810135916080909101351661092f565b005b6101de610dde565b604080516001600160a01b039092168252519081900360200190f35b61024f600480360361010081101561021157600080fd5b506001600160a01b038135811691602081013582169160408201359160608101359160808201359160a08101359160c0820135169060e00135610e02565b60408051938452602084019290925282820152519081900360600190f35b6101506004803603606081101561028357600080fd5b506001600160a01b03813581169160208101359091169060400135610f42565b6101de610f8e565b6101de610fb2565b610150600480360360608110156102c957600080fd5b506001600160a01b03813581169160208101359091169060400135610fca565b6101de600480360360408110156102ff57600080fd5b506001600160a01b03813581169160200135166111cd565b6103456004803603604081101561032d57600080fd5b506001600160a01b0381358116916020013516611203565b60408051602080825283518183015283519192839290830191858101910280838360005b83811015610381578181015183820152602001610369565b505050509050019250505060405180910390f35b60008082428110156103e9576040805162461bcd60e51b8152602060048201526018602482015277155b9a5cddd85c158c949bdd5d195c8e881156141254915160421b604482015290519081900360640190fd5b60006104167f00000000000000000000000000000000000000000000000000000000000000008b8b611291565b90506000816001600160a01b03166370a08231336040518263ffffffff1660e01b815260040180826001600160a01b0316815260200191505060206040518083038186803b15801561046757600080fd5b505afa15801561047b573d6000803e3d6000fd5b505050506040513d602081101561049157600080fd5b5051604080516323b872dd60e01b81523360048201526001600160a01b0385166024820181905260448201849052915192935090916323b872dd916064808201926020929091908290030181600087803b1580156104ee57600080fd5b505af1158015610502573d6000803e3d6000fd5b505050506040513d602081101561051857600080fd5b50506040805163226bf2d160e21b81526001600160a01b03898116600483015282516000938493928716926389afcb44926024808301939282900301818787803b15801561056557600080fd5b505af1158015610579573d6000803e3d6000fd5b505050506040513d604081101561058f57600080fd5b508051602090910151909250905060006105a98e8e611351565b509050806001600160a01b03168e6001600160a01b0316146105cc5781836105cf565b82825b90985096508b8810156106135760405162461bcd60e51b8152600401808060200182810382526026815260200180611fbd6026913960400191505060405180910390fd5b8a8710156106525760405162461bcd60e51b8152600401808060200182810382526026815260200180611f4a6026913960400191505060405180910390fd5b505050505050965096945050505050565b600060607f00000000000000000000000000000000000000000000000000000000000000006001600160a01b0316856001600160a01b031614806106d857507f00000000000000000000000000000000000000000000000000000000000000006001600160a01b0316846001600160a01b0316145b1561075e576040805160028082526060820183529091602083019080368337019050509050848160008151811061070b57fe5b60200260200101906001600160a01b031690816001600160a01b031681525050838160018151811061073957fe5b60200260200101906001600160a01b031690816001600160a01b03168152505061082a565b604080516003808252608082019092529060208201606080368337019050509050848160008151811061078d57fe5b60200260200101906001600160a01b031690816001600160a01b0316815250507f0000000000000000000000000000000000000000000000000000000000000000816001815181106107db57fe5b60200260200101906001600160a01b031690816001600160a01b031681525050838160028151811061080957fe5b60200260200101906001600160a01b031690816001600160a01b0316815250505b60606108577f0000000000000000000000000000000000000000000000000000000000000000858461142f565b90508060008151811061086657fe5b6020026020010151925050509392505050565b6000806108a77f00000000000000000000000000000000000000000000000000000000000000008585611291565b90506000816001600160a01b03166370a08231336040518263ffffffff1660e01b815260040180826001600160a01b0316815260200191505060206040518083038186803b1580156108f857600080fd5b505afa15801561090c573d6000803e3d6000fd5b505050506040513d602081101561092257600080fd5b5051925050505b92915050565b604080516323b872dd60e01b81523360048201523060248201526044810185905290516001600160a01b038716916323b872dd9160648083019260209291908290030181600087803b15801561098457600080fd5b505af1158015610998573d6000803e3d6000fd5b505050506040513d60208110156109ae57600080fd5b50506040805163095ea7b360e01b8152737a250d5630b4cf539739df2c5dacb4c659f2488d60048201526024810185905290516001600160a01b0387169163095ea7b39160448083019260209291908290030181600087803b158015610a1357600080fd5b505af1158015610a27573d6000803e3d6000fd5b505050506040513d6020811015610a3d57600080fd5b50606090507f00000000000000000000000000000000000000000000000000000000000000006001600160a01b039081169087161480610aae57507f00000000000000000000000000000000000000000000000000000000000000006001600160a01b0316856001600160a01b0316145b15610b345760408051600280825260608201835290916020830190803683370190505090508581600081518110610ae157fe5b60200260200101906001600160a01b031690816001600160a01b0316815250508481600181518110610b0f57fe5b60200260200101906001600160a01b031690816001600160a01b031681525050610c00565b6040805160038082526080820190925290602082016060803683370190505090508581600081518110610b6357fe5b60200260200101906001600160a01b031690816001600160a01b0316815250507f000000000000000000000000000000000000000000000000000000000000000081600181518110610bb157fe5b60200260200101906001600160a01b031690816001600160a01b0316815250508481600281518110610bdf57fe5b60200260200101906001600160a01b031690816001600160a01b0316815250505b737a250d5630b4cf539739df2c5dacb4c659f2488d6001600160a01b03166338ed173985858486426040518663ffffffff1660e01b81526004018086815260200185815260200180602001846001600160a01b03168152602001838152602001828103825285818151815260200191508051906020019060200280838360005b83811015610c98578181015183820152602001610c80565b505050509050019650505050505050600060405180830381600087803b158015610cc157600080fd5b505af1158015610cd5573d6000803e3d6000fd5b505050506040513d6000823e601f3d908101601f191682016040526020811015610cfe57600080fd5b8101908080516040519392919084640100000000821115610d1e57600080fd5b908301906020820185811115610d3357600080fd5b8251866020820283011164010000000082111715610d5057600080fd5b82525081516020918201928201910280838360005b83811015610d7d578181015183820152602001610d65565b5050505090500160405250505050846001600160a01b0316866001600160a01b03167f7915b0eeb8a6ad6cb02d22b8c6daa5cd064a3a7c33efb8f23fd9028e6f2c0a86866040518082815260200191505060405180910390a3505050505050565b7f000000000000000000000000000000000000000000000000000000000000000081565b60008060008342811015610e58576040805162461bcd60e51b8152602060048201526018602482015277155b9a5cddd85c158c949bdd5d195c8e881156141254915160421b604482015290519081900360640190fd5b610e668c8c8c8c8c8c61157c565b90945092506000610e987f00000000000000000000000000000000000000000000000000000000000000008e8e611291565b9050610ea68d33838861180d565b610eb28c33838761180d565b806001600160a01b0316636a627842886040518263ffffffff1660e01b815260040180826001600160a01b03168152602001915050602060405180830381600087803b158015610f0157600080fd5b505af1158015610f15573d6000803e3d6000fd5b505050506040513d6020811015610f2b57600080fd5b5051949d939c50939a509198505050505050505050565b6000806000610f727f0000000000000000000000000000000000000000000000000000000000000000878761196a565b915091506000610f83858484611a38565b979650505050505050565b7f000000000000000000000000000000000000000000000000000000000000000081565b737a250d5630b4cf539739df2c5dacb4c659f2488d81565b600060607f00000000000000000000000000000000000000000000000000000000000000006001600160a01b0316856001600160a01b0316148061103f57507f00000000000000000000000000000000000000000000000000000000000000006001600160a01b0316846001600160a01b0316145b156110c5576040805160028082526060820183529091602083019080368337019050509050848160008151811061107257fe5b60200260200101906001600160a01b031690816001600160a01b03168152505083816001815181106110a057fe5b60200260200101906001600160a01b031690816001600160a01b031681525050611191565b60408051600380825260808201909252906020820160608036833701905050905084816000815181106110f457fe5b60200260200101906001600160a01b031690816001600160a01b0316815250507f00000000000000000000000000000000000000000000000000000000000000008160018151811061114257fe5b60200260200101906001600160a01b031690816001600160a01b031681525050838160028151811061117057fe5b60200260200101906001600160a01b031690816001600160a01b0316815250505b60606111be7f00000000000000000000000000000000000000000000000000000000000000008584611ade565b90508060018151811061086657fe5b6000806111fb7f00000000000000000000000000000000000000000000000000000000000000008585611291565b949350505050565b60408051600280825260608083018452926020830190803683370190505090506000806112517f0000000000000000000000000000000000000000000000000000000000000000868661196a565b91509150818360008151811061126357fe5b602002602001018181525050808360018151811061127d57fe5b602002602001018181525050505092915050565b60008060006112a08585611351565b604080516bffffffffffffffffffffffff19606094851b811660208084019190915293851b81166034830152825160288184030181526048830184528051908501206001600160f81b031960688401529a90941b9093166069840152607d8301989098527f96e8ac4277198ff8b6f785478aa9a39f403cb768dd02cbee326c3e7da348845f609d808401919091528851808403909101815260bd909201909752805196019590952095945050505050565b600080826001600160a01b0316846001600160a01b031614156113a55760405162461bcd60e51b8152600401808060200182810382526025815260200180611f256025913960400191505060405180910390fd5b826001600160a01b0316846001600160a01b0316106113c55782846113c8565b83835b90925090506001600160a01b038216611428576040805162461bcd60e51b815260206004820152601e60248201527f556e697377617056324c6962726172793a205a45524f5f414444524553530000604482015290519081900360640190fd5b9250929050565b6060600282511015611488576040805162461bcd60e51b815260206004820152601e60248201527f556e697377617056324c6962726172793a20494e56414c49445f504154480000604482015290519081900360640190fd5b815167ffffffffffffffff811180156114a057600080fd5b506040519080825280602002602001820160405280156114ca578160200160208202803683370190505b50905082816001835103815181106114de57fe5b60209081029190910101528151600019015b80156115745760008061152d8786600186038151811061150c57fe5b602002602001015187868151811061152057fe5b602002602001015161196a565b9150915061154f84848151811061154057fe5b60200260200101518383611c15565b84600185038151811061155e57fe5b60209081029190910101525050600019016114f0565b509392505050565b60008060006001600160a01b03167f00000000000000000000000000000000000000000000000000000000000000006001600160a01b031663e6a439058a8a6040518363ffffffff1660e01b815260040180836001600160a01b03168152602001826001600160a01b031681526020019250505060206040518083038186803b15801561160857600080fd5b505afa15801561161c573d6000803e3d6000fd5b505050506040513d602081101561163257600080fd5b50516001600160a01b031614156116f0577f00000000000000000000000000000000000000000000000000000000000000006001600160a01b031663c9c6539689896040518363ffffffff1660e01b815260040180836001600160a01b03168152602001826001600160a01b0316815260200192505050602060405180830381600087803b1580156116c357600080fd5b505af11580156116d7573d6000803e3d6000fd5b505050506040513d60208110156116ed57600080fd5b50505b60008061171e7f00000000000000000000000000000000000000000000000000000000000000008b8b61196a565b91509150816000148015611730575080155b1561174057879350869250611800565b600061174d898484611a38565b90508781116117a057858110156117955760405162461bcd60e51b8152600401808060200182810382526026815260200180611f4a6026913960400191505060405180910390fd5b8894509250826117fe565b60006117ad898486611a38565b9050898111156117b957fe5b878110156117f85760405162461bcd60e51b8152600401808060200182810382526026815260200180611fbd6026913960400191505060405180910390fd5b94508793505b505b5050965096945050505050565b604080516001600160a01b0385811660248301528481166044830152606480830185905283518084039091018152608490920183526020820180516001600160e01b03166323b872dd60e01b17815292518251600094606094938a169392918291908083835b602083106118925780518252601f199092019160209182019101611873565b6001836020036101000a0380198251168184511680821785525050505050509050019150506000604051808303816000865af19150503d80600081146118f4576040519150601f19603f3d011682016040523d82523d6000602084013e6118f9565b606091505b5091509150818015611927575080511580611927575080806020019051602081101561192457600080fd5b50515b6119625760405162461bcd60e51b8152600401808060200182810382526031815260200180611ef46031913960400191505060405180910390fd5b505050505050565b60008060006119798585611351565b50905060008061198a888888611291565b6001600160a01b0316630902f1ac6040518163ffffffff1660e01b815260040160606040518083038186803b1580156119c257600080fd5b505afa1580156119d6573d6000803e3d6000fd5b505050506040513d60608110156119ec57600080fd5b5080516020909101516dffffffffffffffffffffffffffff91821693501690506001600160a01b0387811690841614611a26578082611a29565b81815b90999098509650505050505050565b6000808411611a785760405162461bcd60e51b8152600401808060200182810382526025815260200180611f986025913960400191505060405180910390fd5b600083118015611a885750600082115b611ac35760405162461bcd60e51b8152600401808060200182810382526028815260200180611f706028913960400191505060405180910390fd5b82611ace8584611ced565b81611ad557fe5b04949350505050565b6060600282511015611b37576040805162461bcd60e51b815260206004820152601e60248201527f556e697377617056324c6962726172793a20494e56414c49445f504154480000604482015290519081900360640190fd5b815167ffffffffffffffff81118015611b4f57600080fd5b50604051908082528060200260200182016040528015611b79578160200160208202803683370190505b5090508281600081518110611b8a57fe5b60200260200101818152505060005b600183510381101561157457600080611bcf87868581518110611bb857fe5b602002602001015187866001018151811061152057fe5b91509150611bf1848481518110611be257fe5b60200260200101518383611d50565b848460010181518110611c0057fe5b60209081029190910101525050600101611b99565b6000808411611c555760405162461bcd60e51b815260040180806020018281038252602c815260200180611ec8602c913960400191505060405180910390fd5b600083118015611c655750600082115b611ca05760405162461bcd60e51b8152600401808060200182810382526028815260200180611f706028913960400191505060405180910390fd5b6000611cb86103e8611cb28688611ced565b90611ced565b90506000611ccc6103e5611cb28689611e28565b9050611ce36001828481611cdc57fe5b0490611e78565b9695505050505050565b6000811580611d0857505080820282828281611d0557fe5b04145b610929576040805162461bcd60e51b815260206004820152601460248201527364732d6d6174682d6d756c2d6f766572666c6f7760601b604482015290519081900360640190fd5b6000808411611d905760405162461bcd60e51b815260040180806020018281038252602b815260200180611fe3602b913960400191505060405180910390fd5b600083118015611da05750600082115b611ddb5760405162461bcd60e51b8152600401808060200182810382526028815260200180611f706028913960400191505060405180910390fd5b6000611de9856103e5611ced565b90506000611df78285611ced565b90506000611e1183611e0b886103e8611ced565b90611e78565b9050808281611e1c57fe5b04979650505050505050565b80820382811115610929576040805162461bcd60e51b815260206004820152601560248201527464732d6d6174682d7375622d756e646572666c6f7760581b604482015290519081900360640190fd5b80820182811015610929576040805162461bcd60e51b815260206004820152601460248201527364732d6d6174682d6164642d6f766572666c6f7760601b604482015290519081900360640190fdfe556e697377617056324c6962726172793a20494e53554646494349454e545f4f55545055545f414d4f554e545472616e7366657248656c7065723a3a7472616e7366657246726f6d3a207472616e7366657246726f6d206661696c6564556e697377617056324c6962726172793a204944454e544943414c5f414444524553534553556e69737761705632526f757465723a20494e53554646494349454e545f425f414d4f554e54556e697377617056324c6962726172793a20494e53554646494349454e545f4c4951554944495459556e697377617056324c6962726172793a20494e53554646494349454e545f414d4f554e54556e69737761705632526f757465723a20494e53554646494349454e545f415f414d4f554e54556e697377617056324c6962726172793a20494e53554646494349454e545f494e5055545f414d4f554e54a2646970667358221220683032c61c7926f750ef297732aa9c76dd21d752282a965ae090f836b79dae4a64736f6c634300060c0033",
  "immutableReferences": {
    "3441": [
      {
        "length": 32,
        "start": 1008
      },
      {
        "length": 32,
        "start": 2097
      },
      {
        "length": 32,
        "start": 2177
      },
      {
        "length": 32,
        "start": 3698
      },
      {
        "length": 32,
        "start": 3916
      },
      {
        "length": 32,
        "start": 3984
      },
      {
        "length": 32,
        "start": 4504
      },
      {
        "length": 32,
        "start": 4565
      },
      {
        "length": 32,
        "start": 4651
      },
      {
        "length": 32,
        "start": 5516
      },
      {
        "length": 32,
        "start": 5701
      },
      {
        "length": 32,
        "start": 5880
      }
    ],
    "3443": [
      {
        "length": 32,
        "start": 1641
      },
      {
        "length": 32,
        "start": 1700
      },
      {
        "length": 32,
        "start": 1967
      },
      {
        "length": 32,
        "start": 2628
      },
      {
        "length": 32,
        "start": 2682
      },
      {
        "length": 32,
        "start": 2949
      },
      {
        "length": 32,
        "start": 3552
      },
      {
        "length": 32,
        "start": 4048
      },
      {
        "length": 32,
        "start": 4107
      },
      {
        "length": 32,
        "start": 4374
      }
    ]
  },
  "source": "// SPDX-License-Identifier: MIT\npragma solidity >=0.6.2;\n\nimport '@uniswap/v2-core/contracts/interfaces/IUniswapV2Factory.sol';\nimport '@uniswap/v2-core/contracts/interfaces/IUniswapV2Pair.sol';\nimport '@uniswap/lib/contracts/libraries/TransferHelper.sol';\n\nimport './interfaces/IUniswapV2Router02.sol';\nimport './libraries/UniswapV2Library.sol';\nimport './libraries/SafeMath.sol';\nimport './interfaces/IERC20.sol';\nimport './interfaces/IWETH.sol';\n\ncontract UniswapV2Router02Contract {\n    \n    using SafeMath for uint;\n\n    address public constant UNISWAP_V2_ROUTER = 0x7a250d5630B4cF539739dF2C5dAcb4c659F2488D;\n    address public immutable UNISWAP_V2_FACTORY;\n    address public immutable UNISWAP_V2_WETH;\n    \n    constructor(address _UNISWAP_V2_FACTORY, address _UNISWAP_V2_WETH) public {\n        UNISWAP_V2_FACTORY = _UNISWAP_V2_FACTORY;\n        UNISWAP_V2_WETH = _UNISWAP_V2_WETH;\n    }\n\n        modifier ensure(uint deadline) {\n        require(deadline >= block.timestamp, 'UniswapV2Router: EXPIRED');\n        _;\n    }\n\n    event swapDone(address indexed _fromToken, address indexed _toToken, uint _amountIn);\n\n    function testSomeThings(address tokenA, address tokenB,  uint _amount)external view returns(uint){\n\n        (uint reserveA, uint reserveB) = UniswapV2Library.getReserves(UNISWAP_V2_FACTORY, tokenA, tokenB);\n\n        (uint amountB) = UniswapV2Library.quote(_amount, reserveA, reserveB);\n\n        return amountB;\n\n    }\n\n\n    function getReserveOfTokenIn(address _tokenIn, address _tokenOut) external view returns(uint[] memory amounts){\n\n        amounts = new uint[](2);\n\n        (uint reserveA, uint reserveB) = UniswapV2Library.getReserves(UNISWAP_V2_FACTORY, _tokenIn, _tokenOut);\n        amounts[0] = reserveA;\n        amounts[1] = reserveB;\n    }\n\n    function getAmountOutForSwap(address _tokenIn, address _tokenOut, uint _amountIn) external view returns(uint){      \n        address[] memory path;\n        if (_tokenIn == UNISWAP_V2_WETH || _tokenOut == UNISWAP_V2_WETH) {\n            path = new address[](2);\n            path[0] = _tokenIn;\n            path[1] = _tokenOut;\n            } else {\n                path = new address[](3);\n                path[0] = _tokenIn;\n                path[1] = UNISWAP_V2_WETH;\n                path[2] = _tokenOut;\n                }\n            \n            uint[] memory amounts = UniswapV2Library.getAmountsOut(UNISWAP_V2_FACTORY, _amountIn, path);\n            \n            return amounts[1];\n    }\n    \n    \n    \n    function getAmountInForSwap(address _tokenIn, address _tokenOut, uint _amountIn) external view returns(uint){      \n        address[] memory path;\n        if (_tokenIn == UNISWAP_V2_WETH || _tokenOut == UNISWAP_V2_WETH) {\n            path = new address[](2);\n            path[0] = _tokenIn;\n            path[1] = _tokenOut;\n            } else {\n                path = new address[](3);\n                path[0] = _tokenIn;\n                path[1] = UNISWAP_V2_WETH;\n                path[2] = _tokenOut;\n                }\n            \n            uint[] memory amounts = UniswapV2Library.getAmountsIn(UNISWAP_V2_FACTORY, _amountIn, path);\n            \n            return amounts[0];\n    }\n\n\n\n    function makeSwapExactTokensForTokens( address _tokenIn, address _tokenOut, uint _amountIn, uint _amountOutMin, address _to) external {\n        IERC20(_tokenIn).transferFrom(msg.sender, address(this), _amountIn);\n        IERC20(_tokenIn).approve(UNISWAP_V2_ROUTER, _amountIn);\n        \n        address[] memory path;\n        if (_tokenIn == UNISWAP_V2_WETH || _tokenOut == UNISWAP_V2_WETH) {\n            path = new address[](2);\n            path[0] = _tokenIn;\n            path[1] = _tokenOut;\n            } else {\n                path = new address[](3);\n                path[0] = _tokenIn;\n                path[1] = UNISWAP_V2_WETH;\n                path[2] = _tokenOut;\n                }\n            \n            IUniswapV2Router02(UNISWAP_V2_ROUTER).swapExactTokensForTokens(\n                _amountIn,\n                _amountOutMin,\n                path,\n                _to,\n                block.timestamp\n            );\n\n        emit swapDone(_tokenIn, _tokenOut, _amountIn);\n    }\n\n\n\n    function _addLiquidityToExchanger(\n        address tokenA,\n        address tokenB,\n        uint amountADesired,\n        uint amountBDesired,\n        uint amountAMin,\n        uint amountBMin\n    ) private returns (uint amountA, uint amountB) {\n        // create the pair if it doesn't exist yet\n        if (IUniswapV2Factory(UNISWAP_V2_FACTORY).getPair(tokenA, tokenB) == address(0)) {\n            IUniswapV2Factory(UNISWAP_V2_FACTORY).createPair(tokenA, tokenB);\n        }\n        (uint reserveA, uint reserveB) = UniswapV2Library.getReserves(UNISWAP_V2_FACTORY, tokenA, tokenB);\n        if (reserveA == 0 && reserveB == 0) {\n            (amountA, amountB) = (amountADesired, amountBDesired);\n        } else {\n            uint amountBOptimal = UniswapV2Library.quote(amountADesired, reserveA, reserveB);\n            if (amountBOptimal <= amountBDesired) {\n                require(amountBOptimal >= amountBMin, 'UniswapV2Router: INSUFFICIENT_B_AMOUNT');\n                (amountA, amountB) = (amountADesired, amountBOptimal);\n            } else {\n                uint amountAOptimal = UniswapV2Library.quote(amountBDesired, reserveB, reserveA);\n                assert(amountAOptimal <= amountADesired);\n                require(amountAOptimal >= amountAMin, 'UniswapV2Router: INSUFFICIENT_A_AMOUNT');\n                (amountA, amountB) = (amountAOptimal, amountBDesired);\n            }\n        }\n    }\n\n\n\n    function addLiquidityToExchanger(\n        address tokenA,\n        address tokenB,\n        uint amountADesired,\n        uint amountBDesired,\n        uint amountAMin,\n        uint amountBMin,\n        address to,\n        uint deadline\n    ) external ensure(deadline) returns (uint amountA, uint amountB, uint liquidity) {\n        (amountA, amountB) = _addLiquidityToExchanger(tokenA, tokenB, amountADesired, amountBDesired, amountAMin, amountBMin);\n        address pair = UniswapV2Library.pairFor(UNISWAP_V2_FACTORY, tokenA, tokenB);\n        TransferHelper.safeTransferFrom(tokenA, msg.sender, pair, amountA);\n        TransferHelper.safeTransferFrom(tokenB, msg.sender, pair, amountB);\n        liquidity = IUniswapV2Pair(pair).mint(to);\n    }\n\n\n        function removeLiquidityFromExchanger(\n        address tokenA,\n        address tokenB,\n        uint amountAMin,\n        uint amountBMin,\n        address to,\n        uint deadline\n    ) public ensure(deadline) returns (uint amountA, uint amountB) {\n        address pair = UniswapV2Library.pairFor(UNISWAP_V2_FACTORY, tokenA, tokenB);\n        uint liquidity = IERC20(pair).balanceOf(msg.sender);\n        IUniswapV2Pair(pair).transferFrom(msg.sender, pair, liquidity); // send liquidity to pair\n        (uint amount0, uint amount1) = IUniswapV2Pair(pair).burn(to);\n        (address token0,) = UniswapV2Library.sortTokens(tokenA, tokenB);\n        (amountA, amountB) = tokenA == token0 ? (amount0, amount1) : (amount1, amount0);\n        require(amountA >= amountAMin, 'UniswapV2Router: INSUFFICIENT_A_AMOUNT');\n        require(amountB >= amountBMin, 'UniswapV2Router: INSUFFICIENT_B_AMOUNT');\n    }\n\n\n    function getPairAddress(address _tokenA, address _tokenB) external view returns(address){\n        \n        address pair = UniswapV2Library.pairFor(UNISWAP_V2_FACTORY, _tokenA, _tokenB);\n        return pair;\n    }\n\n\n\n    function getUserBalanceFromLiq(address _tokenA, address _tokenB) external view returns(uint){\n        \n        address pair = UniswapV2Library.pairFor(UNISWAP_V2_FACTORY, _tokenA, _tokenB);\n        uint liquidity = IERC20(pair).balanceOf(msg.sender);\n        return liquidity;\n    }\n\n}\n",
  "sourcePath": "C:\\Users\\JS\\Desktop\\SwapWithFront\\src\\contracts\\UniswapV2Router02Contract.sol",
  "compiler": {
    "name": "solc",
    "version": "0.6.12+commit.27d51765.Emscripten.clang"
  },
  "schemaVersion": "3.4.4",
  "updatedAt": "2022-02-20T12:00:44.423Z",
  "networkType": "ethereum",
  "devdoc": {
    "kind": "dev",
    "methods": {},
    "version": 1
  },
  "userdoc": {
    "kind": "user",
    "methods": {},
    "version": 1
  }
}